:020000001C29B9
:1000060083120313FB01FA01F9018030F800F10CA9
:10001600F00C031C17287408F90775080318750FE8
:10002600FA070318FB0A0310F01F1F287408FA07C3
:1000360075080318750FFB07FB0CFA0CF90CF80C86
:10004600031C0A287B08F3007A08F2007908F100FD
:060056007808F00008002C
:0E005C008312031329088A0028088200080076
:10006A00831603131208013EF000F1010318F10A86
:10007A0083123408F400F50103200630F2007008F8
:10008A00F4007108F500720803195028F50CF40CF5
:10009A00F513FF3E49280430F1007408F000710896
:1000AA0003195B28F00D7010FF3E5528303070059B
:1000BA00F3007408F0007508F100F10CF00CF1136C
:1000CA00F10CF00CF11370089B000F309D057308BA
:0400DA009D04080079
:0C00DE00831203139501171297120800FB
:1000EA00831603138710831212150C309D0408001F
:0C00FA00831203139B011D129D120800CD
:10010600831603130711831212150C309704080087
:10011600831603131208013EF000F1010318F10AD9
:1001260083123408F400F50103200630F20070084B
:10013600F4007108F50072080319A628F50CF40CF2
:10014600F513FF3E9F280430F1007408F000710893
:100156000319B128F00D7010FF3EAB283030700542
:10016600F3007408F0007508F100F10CF00CF113BF
:10017600F10CF00CF113700895000F309705730819
:0401860097040800D2
:10018A00831203133208B4008B200712832008005D
:10019A0000308312031308180130A600A7010030AB
:1001AA0088180130A200A301003008190130A40008
:1001BA00A501003088190130AC00AD010030081AE1
:1001CA000130AE00AF010030881A0130B000B10131
:0C01DA000030081B0130AA00AB01080037
:1001E600831203133208B400352007107520080067
:1001F6002E208A110A128000840AA80A0319A90A65
:08020600F003031DFB280800B2
:10020E008316031387018312870112109210FF3099
:10021E00831692006F2012109210FF3083169200F8
:0A022E007D20FF30831688000800D1
:100238000721CD2000302B06031D242900302A0673
:10024800031D582900303106031D2C2901303006C2
:10025800031D5829B201B301C520B201B301F3202F
:100268001530FB004B30FC00BE30FD00FD0B3A2979
:10027800FC0B3A29FB0B3A2900009630B200B30177
:10028800C520B201B301F3202430FB008330FC0009
:10029800CF30FD00FD0B4E29FC0B4E29FB0B4E29E0
:1002A8000130A0000030A10000302706031D5E29A0
:1002B80000302606031D692900302506031D66291E
:1002C80000302406031D6929942900302506031DE2
:1002D8006F2900302406031D7A2900302F06031DDC
:1002E800772900302E06031D7A2994290030270625
:1002F800031D802900302606031D9329003025069A
:10030800031D882900302406031D932900302F0679
:10031800031D902900302E06031D93299429DA29FC
:1003280000302106031D9A2901302006031DDA2911
:10033800B201B301C520B201B301F3201530FB00AF
:100348004B30FC00BE30FD00FD0BA829FC0BA82992
:10035800FB0BA8290000B201B301C5209630B200FA
:10036800B301F3201530FB004B30FC00BE30FD001C
:10037800FD0BBC29FC0BBC29FB0BBC290000B201FE
:10038800B301C520B201B301F3201530FB004B3097
:10039800FC00BE30FD00FD0BCF29FC0BCF29FB0B69
:1003A800CF2900000230A0000030A100003025064F
:1003B800031DE02900302406031D262A00302D06DF
:1003C800031DE82900302C06031D262A00302F06BD
:1003D800031DF02900302E06031D262A00302106B1
:1003E800031DF82902302006031D262AB201B30195
:1003F800C520B201B301F3200B30FB002630FC000E
:100408005D30FD00FD0B062AFC0B062AFB0B062AB5
:10041800000000009630B200B301C520B201B3015C
:10042800F3201F30FB007130FC001E30FD00FD0B77
:100438001B2AFC0B1B2AFB0B1B2A00000330A00005
:100448000030A10000302706031D2C2A01302606A3
:10045800031D482A00302506031D342A01302406CE
:10046800031D482A00302F06031D3C2A01302E06A2
:10047800031D482A6430B2000030B300C520643040
:10048800B2000030B300F32000302706031D4E2AC7
:1004980001302606031D6A2A00302506031D562A48
:1004A80000302406031D6A2A00302F06031D5E2A29
:1004B80001302E06031D6A2A6430B2000030B300F2
:1004C800C5206430B2000030B300F32000302706A6
:1004D800031D702A00302606031D892A00302506D0
:1004E800031D782A01302406031D892A00302F06AF
:1004F800031D802A01302E06031D892AB201B3018B
:10050800C5209630B200B301F32000302706031D42
:100518008F2A01302606031DA82A00302506031D50
:10052800972A01302406031DA82A00302F06031D30
:100538009F2A00302E06031DA82A9630B200B30168
:0C054800C520B201B301F3201D29A92A2F
:04400E00F22F000786
:00000001FF
